:020000041000EA
:1000000000B5324B212058609868022188439860DF
:10001000D860186158612E4B002199600221596106
:100020000121F02299502B49196001219960352056
:1000300000F044F80222904214D00621196600F024
:1000400034F8196E01211966002018661A6600F04E
:100050002CF8196E196E196E052000F02FF8012189
:100060000842F9D1002199601B49196000215960AB
:100070001A491B48016001219960EB211966A021F2
:10008000196600F012F800219960164914480160C1
:100090000121996001BC002800D000471248134993
:1000A000086003C880F30888084703B5996A0420EC
:1000B0000142FBD001200142F8D103BD02B5186610
:1000C0001866FFF7F2FF186E186E02BD00000240BE
:1000D000000000180000070000035F00212200005C
:1000E000F4000018222000A00001001008ED00E03C
:1000F00000000000000000000000000074B24E7A12
:1001000000200420F7010010CB010010CD010010E9
:10011000C9010010C9010010C9010010C901001077
:10012000C9010010C9010010C9010010CF01001061
:10013000C9010010C9010010D1010010D301001045
:10014000C1010010C1010010C1010010C101001067
:10015000C1010010C1010010C1010010C101001057
:10016000C1010010C1010010C1010010C101001047
:10017000C1010010C1010010C1010010C101001037
:10018000C1010010C1010010C1010010C101001027
:10019000C1010010C1010010C1010010C101001017
:1001A000C1010010C1010010C1010010C101001007
:1001B000C1010010C1010010C1010010C1010010F7
:1001C000EFF30580103800BE00BE00BE00BE00BECA
:1001D00000BE00BEF2EB8871E86000100461001000
:1001E0003802001090A31AE71E481F49086006C88D
:1001F00081F3088810471D480068002801D019487D
:10020000F3E70DA40ECC002902D000F012F8F9E7B4
:100210001749184A002000E001C19142FCD116495B
:100220008847164988471649884700BEFDE701C937
:1002300001C29A42FBD3704704610010C000002045
:10024000D0080020146900100000042000000420E1
:1002500014690010001004200010042000000000A9
:10026000704700000000000008ED00E0000000D032
:10027000D0080020DC140020A14700101905001050
:1002800099470010F8B5C0460448054B10B58342A5
:1002900003D0044B002B00D0984710BDD00800209D
:1002A000D00800200000000006480749091A8B10FA
:1002B000C90FC91810B5491003D0044B002B00D04A
:1002C000984710BDD0080020D00800200000000092
:1002D00010B5074C2378002B09D1FFF7D5FF054B4C
:1002E000002B02D0044800E000BF0123237010BDA2
:1002F000580C00200000000058590010054B10B5A4
:10030000002B03D00449054800E000BFFFF7CCFFF5
:1003100010BDC046000000005C0C002058590010C1
:10032000F0B500688BB002F0A3FD06000F00164A7E
:1003300020210096019702A804F0BEF98022134CF8
:1003400000212000D20002F021FE114D20002B00E0
:100350000022052100F092FB02AB102220000521B3
:1003600000F08CFB20000B4900F03CFB290002AAA6
:10037000094804F003FC32003B00084804F0FEFB8F
:1003800000200BB0F0BDC04658590010D810002016
:1003900064590010380300206C5900107459001083
:1003A00010B50C490C4804F02FFD0321042000F087
:1003B00017FF0321052000F013FF00220121042074
:1003C00000F028FF05200022012100F023FF00207B
:1003D00010BDC046801A06008803002013000022CA
:1003E00010B5054C82B000920A000100200004F014
:1003F00033FDC00F02B010BD88030020130000229F
:1004000010B5054C82B000920A000100200004F0F3
:100410002DFDC00F02B010BD8803002010B501F003
:10042000E1FA10BD70B5058988B02B00202168461F
:10043000134A04F041F98022124C00212000D2001E
:1004400002F0A4FD104E200033000022052100F030
:1004500015FB6B4610222000052100F00FFB200049
:100460000A4900F0BFFA6A463100094804F086FBE9
:100470002900084804F082FB022008B070BDC04685
:1004800094590010D81000209C5900103803002007
:100490006C590010A0590010F0B540688BB002F004
:1004A000E7FC06000F00164A20210096019702A8DB
:1004B00004F002F98022134C00212000D20002F047
:1004C00065FD114D20002B000022052100F0D6FA19
:1004D00002AB10222000052100F0D0FA20000B49C9
:1004E00000F080FA290002AA094804F047FB320014
:1004F0003B00084804F042FB01200BB0F0BDC046B1
:10050000B4590010D8100020BC5900103803002046
:100510006C590010C4590010F0B5DE4645465746E8
:100520004E460623E0B5A1B06B44984600234246F0
:100530001380FFF735FF0CA800F0A2F8041E0BD0C3
:100540002100414804F01AFB012021B0F0BCBB4659
:10055000B246A946A046F0BD00263C4804F086FA03
:100560003B4B05A805933B4B069408933A4B0A94E2
:1005700007933A4B3700099300F01CFC05A800F0E4
:10058000E9FA374B9946374B9A4628220CA916A808
:1005900002F002FD16A800F063F916A800F01CFA9C
:1005A000041C16A800F012FA2F49051C0390201C09
:1005B000029402F050FC2D498346201C02F034FCCA
:1005C000011C584602F033FC02F05CFC284902F0A2
:1005D00042FC28498346281C02F029FC011C58468D
:1005E00002F039FC244902F036FC2449051C201C89
:1005F00002F01AFC011C281C02F019FC8721C90515
:1006000002F029FC02F02EFC81B205A800F0CCFA21
:10061000424604A905A800F00FFC002005F0BCF834
:10062000052101F063FD4A424A414946BB189B003F
:10063000CB58002B03D0984706004700A5E73100B0
:10064000504604F09BFAA0E7045A0010E05900104D
:10065000A1030010FD030010DD0300101D040010B5
:1006600020030020245A0010C3F58C41B81E7343A8
:100670008195C3400000C84233B358433393884345
:10068000F0B50023CE4647462D4A80B5436003604F
:100690008360C360C26100232722037443618361C6
:1006A00085B083540021203A203002F06FFC642092
:1006B00001F098F918239846224B0F2403270025B0
:1006C0009946214E6C4401232200382130000095C8
:1006D00004F0CCFB424623781340182B14D003239C
:1006E0004A4638213000009504F0B6FB0323382138
:1006F000164A3000009504F0AFFB03233821300088
:10070000134A009504F0A8FB642001F06BF9012363
:10071000220038213000009504F0A8FB42462378DF
:100720001340182B09D0013F002FCCD1102040429C
:1007300005B0C0BCB946B046F0BD0020F8E7C046E1
:10074000DC050000E460001088030020E060001079
:10075000DC600010202370B5C35C04000374030048
:1007600021331A785B781B02134323225BBA855C22
:100770009BB21B012809C01801F0AEFF0022354BC7
:1007800001F047FF01F0F4FF0F2224232060E35C17
:100790002A4012029B182522A05C1B02C01801F0FF
:1007A0009BFF00222C4B01F034FF2C4B002201F068
:1007B00000FF01F0DDFF250021006060FF233120F4
:1007C000203126350A7853405A005BB2D2B2002B52
:1007D00001DA4240D2B2530052B2DBB2002A01DA4F
:1007E0004340DBB25A005BB2D2B2002B01DA424086
:1007F000D2B2530052B2DBB2002A01DA4340DBB27C
:100800005A005BB2D2B2002B01DA4240D2B253009E
:1008100052B2DBB2002A01DA4340DBB25A005BB2CB
:10082000D2B2002B01DA4240D2B2530052B2DBB254
:10083000002A01DA4340DBB201318D42C2D12722C6
:10084000A354013AA05CC01A431E984109234042B8
:10085000984370BD0000193F0000293F0000494047
:1008600030B583B0040001F067F9002963D0FA22A3
:100870000023920001F0A0FC6369C01AE36998426A
:1008800062D8002D00D094E001F056F900290BD079
:10089000FA220023920001F08FFC6369C01A6428D9
:1008A0000AD8280003B030BDFA21890001F046FCC7
:1008B0006369C01A6428F4D901F03EF9002962D0B6
:1008C000FA220023920001F077FCA369C01AFA23F0
:1008D0009B009842E5D90023220000933821394833
:1008E0000733203204F0C2FA013068D02023E25CE2
:1008F000E356002B60DB002A4AD12123E35C002B66
:1009000046D12233E35C002B42D12333E35C002B3E
:100910003ED12433E35C002B3AD12533E35C002B3A
:1009200036D12633E35C002B32D10D256D422000F9
:10093000FFF710FFB5E7FA21890001F0FFFB6369BB
:10094000C01AE36998429CD90023382100931E4ABB
:1009500003331C4804F080FA451C6B425D410A23B6
:100960006D429D4301F0E8F8002905D1FA21890084
:1009700001F0E4FB606184E7FA220023920001F0B9
:100980001BFC60617DE7FA21890001F0D7FB9CE741
:1009900001F0D2F8002906D0FA220023920001F0DB
:1009A0000BFCA061C3E7FA21890001F0C7FBA0613D
:1009B000BDE70B256D4274E711256D42B7E70B25A6
:1009C0006D42B4E788030020D860001010B581683C
:1009D000006802F029FA10BD10B5C168406802F045
:1009E00023FA10BDF0B557464E464546DE46212354
:1009F000E0B587B004AC23700B78834663704B7806
:100A00008A46A3702223E3704B880027A380162315
:100A10006B44994680239846174E03AD424623788F
:100A20002A706B702A0002233C21300000970134A9
:100A300004F012FA4C45F1D153465B685D1C280066
:100A4000984602F085FA4023040042465946037056
:100A5000013002F0A1FA2B0022003C213000009767
:100A600004F0FAF9200002F085FA07B0F0BCBB46AA
:100A7000B246A946A046F0BD80030020F0B5DE4690
:100A800057464E464546E0B585B078294DDC382AB4
:100A90004BDC1C78002C48D00725D6173540AA1807
:100AA000D210D2010292294A0392294A93462AE09F
:100AB000303C092C40D8FF242240153A5C46D20035
:100AC000A45C5A44A24654781779A1469478567982
:100AD000A046D4789579A446D27901925446029AD8
:100AE0008A1884544C468218547044469470644664
:100AF000D470019C177156719571D4711C780831AE
:100B000009B2002C11D001337829F7DC0326039DAC
:100B100022002D5D3540022D01D1203AD4B22500AE
:100B2000413D192DC4D8403AC8E705B0F0BCBB46DA
:100B3000B246A946A046F0BD0022002500260027A7
:100B400094469046914692460192C7E7D55F0010C1
:100B5000645C001030B5040085B0002820D0037E0E
:100B60000325012B02D0280005B030BD6B460E22B4
:100B70000021981C02F00AFAC8236A469B001380E1
:100B800069460222B020A3689847051E04D0054894
:100B9000636998470125E6E70A2023699847E2E759
:100BA0000225E0E74C5A001070B5050084B000281B
:100BB00000D1F8E0037E0324012B02D0200004B012
:100BC00070BDCBB24EBA090AC843C1B242B20006E8
:100BD00071D44900CAB249B2002973DB5200D1B2C4
:100BE00052B2002A75DB4900CAB249B2002977DB4C
:100BF0005200D1B252B2002A79DB4900CAB249B2DE
:100C000000297BDB5200D1B252B2002A7DDB4900C1
:100C1000CAB249B2002900DA7FE05200D2B2534092
:100C20005AB2002A00DA81E05B00DAB25BB2002B34
:100C300000DA83E05200D3B252B2002A00DA85E033
:100C40005B00DAB25BB2002B00DA87E05200D3B26D
:100C500052B2002A00DA89E05B00DAB25BB2002B04
:100C600000DA8BE05200D3B252B2002A00DA8DE0F3
:100C70005B00DAB25BB2002B00DA8FE05200D4B234
:100C80006B460B220021581D02F080F96A46474B43
:100C900014711380568069460522B020AB689847CE
:100CA000041E04D042486B699847012486E70A2055
:100CB0002B69984782E7312152004A4051B2D2B2A3
:100CC00000298BDA3122490051404AB2C9B2002AC8
:100CD00089DA312152004A4051B2D2B2002987DA72
:100CE0003122490051404AB2C9B2002A85DA312185
:100CF00052004A4051B2D2B2002983DA312249006F
:100D000051404AB2C9B2002A81DA312152004A4028
:100D100051B2D2B2002900DB7FE7312249004A40BC
:100D2000D2B253405AB2002A00DB7DE73123520091
:100D30005A4053B2D2B2002B00DB7BE731225B007A
:100D400053405AB2DBB2002A00DB79E7312352006C
:100D50005A4053B2D2B2002B00DB77E731225B005E
:100D600053405AB2DBB2002A00DB75E73123520050
:100D70005A4053B2D2B2002B00DB73E731225B0042
:100D800053405AB2DBB2002A00DB71E73123520034
:100D90005A4053B2D2B2002B00DB6FE731225B0026
:100DA0005340DCB26CE7022408E7C0462061000033
:100DB000D05A001010B5041E1BD04369002B16D06A
:100DC0000268002A1CD0416800291DD081680029D2
:100DD0001ED0C16800291FD00169002905D09047A5
:100DE000002808D10123237610BD0D489847032021
:100DF000FAE70220F8E70B48636998470320F3E716
:100E0000094898470320EFE7084898470320EBE795
:100E1000074898470320E7E7064898470320E3E799
:100E2000705B00108C5B0010F85A0010145B00100F
:100E3000305B0010505B0010F0B5C64600B50500F1
:100E40008846170084B0002800D155E1067E012EA7
:100E500005D00326300004B080BCB846F0BD02AC1B
:100E600006220021200002F091F8822301A91B0133
:100E70000B800222B020AB689847002809D10C20D3
:100E80002B69984706222100B020EB68984700287C
:100E900003D0C4486B699847DCE72078A278C04348
:100EA000C1B243B2000654D44900CBB249B20029C2
:100EB00056DB5B00D9B25BB2002B58DB4900CBB2EA
:100EC00049B200295ADB5B00D9B25BB2002B5CDB74
:100ED0004900CBB249B200295EDB5B00D9B25BB2FC
:100EE000002B60DB4900CBB249B2002962DB61789C
:100EF0005B00DBB24B4059B2002964DB5B00D9B226
:100F00005BB2002B66DB4900CBB249B2002968DB3B
:100F10005B00D9B25BB2002B6ADB4900CBB249B2AD
:100F200000296CDB5B00D9B25BB2002B6EDB4900A1
:100F3000CBB249B2002970DB5B00D9B25BB2002BA7
:100F400072DB4900CBB29A4274D097486B699847DC
:100F500080E731215B004B4059B2DBB20029A8DAAF
:100F60003123490059404BB2C9B2002BA6DA3121D6
:100F70005B004B4059B2DBB20029A4DA31234900AF
:100F800059404BB2C9B2002BA2DA31215B004B4071
:100F900059B2DBB20029A0DA3123490059404BB2E3
:100FA000C9B2002B9EDA31215B004B4059B2DBB253
:100FB00000299CDA312349004B406178DBB24B4079
:100FC00059B200299ADA3123490059404BB2C9B2CB
:100FD000002B98DA31215B004B4059B2DBB200297B
:100FE00096DA3123490059404BB2C9B2002B94DA4A
:100FF00031215B004B4059B2DBB2002992DA312338
:10100000490059404BB2C9B2002B90DA31215B0044
:101010004B4059B2DBB200298EDA312349005940E6
:101020004BB2C9B2002B8CDA31215B004B40DBB2F2
:101030009A428AD1E0786279C043C1B243B20006D5
:1010400000D5C7E04900CBB249B2002900DABBE0C5
:101050005B00D9B25BB2002B00DAAFE04900CBB243
:1010600049B2002900DAA3E05B00D9B25BB2002BE1
:1010700000DA91E04900CBB249B2002900DA85E0FC
:101080005B00D9B25BB2002B7ADB4900CBB249B22C
:10109000002970DB5B00DBB221794B4059B200299B
:1010A00063DB5B00D9B25BB2002B58DB4900CBB2EB
:1010B00049B200294DDB5B00D9B25BB2002B42DBA9
:1010C0004900CBB249B2002937DB5B00D9B25BB231
:1010D000002B2CDB4900CBB249B2002921DB5B009D
:1010E000D9B25BB2002B17DB4900CBB29A4205D0D4
:1010F0002E486B699847ADE60226ABE64246238848
:1011000000265BBA13800B236B441A785B781B02B2
:1011100013435BBA3B809DE631215B004B40DBB261
:10112000E4E73123490059404BB2C9B2DAE7312133
:101130005B004B4059B2DBB2CFE731234900594045
:101140004BB2C9B2C4E731215B004B4059B2DBB2AC
:10115000B9E73123490059404BB2C9B2AEE731215A
:101160005B004B4059B2DBB2A3E731234900594041
:101170004BB2C9B298E7312349004B40DBB28BE751
:1011800031215B004B4059B2DBB281E7312349008A
:1011900059404BB2C9B276E731215B004B4059B29E
:1011A000DBB26AE76C5A0010905A0010B05A001077
:1011B0003123490059404BB2C9B258E731215B0095
:1011C0004B4059B2DBB24CE73123490059404BB296
:1011D000C9B240E731215B004B4059B2DBB234E782
:1011E000094A83009A1810B514684022544080328E
:1011F0002240064CC000A44663441A60044B9C463F
:101200006044416010BDC04604C0014004D00140AC
:1012100000400140074B8000C3181B68C9009200C2
:101220000A435A400C231340034A94466044036027
:101230007047C04604C0014004D001400FB400B55F
:10124000084883B003F012FC049B002B07D005A9CB
:101250001800019103F054FA034803F007FC012041
:1012600003F066FAA85B0010B85B001070B5EFF3EE
:10127000108C72B60D4D2B68002BFCD0BFF35F8F26
:101280000724CB08C618C05C01230C40A3401C00F7
:101290000440034207D118433070BFF35F8F2C60C6
:1012A0008CF3108870BD1000FFF7C8FF2C0100D030
:1012B000044A1078431CDBB2172B00D9102313709B
:1012C0007047C046400300200021044B044ABFF38E
:1012D0005F8F02C39342FAD17047C046000100D02D
:1012E000800100D0054B064A1360064A1360536024
:1012F0009360D360136153619361704780808080F5
:1013000000E400E004E400E01F2318401E3B83409B
:10131000002905D0C021044A49005350136070478A
:10132000802201498B50FAE700E100E070B50D0022
:10133000EFF3108672B60F4A1368002BFCD0BFF390
:101340005F8F0D4B10309B6884001B590B4A9342F2
:1013500003D09D4201D000F09FFD074B9B681D51BB
:10136000BFF35F8FBFF35F8F0022024B1A6086F3DB
:10137000108870BD240100D000ED00E0C101001014
:10138000024B9C4661448900016070474000003474
:1013900070B5114C114DAC420FD2FF262368002BC3
:1013A0000CD0FFF785FF01002000FFF7E9FFA680C2
:1013B000BFF35F8F0834AC42F0D370BDFFF778FF06
:1013C00001002000FFF7DCFF2671BFF35F8F0834B8
:1013D000AC42E3D3F1E7C046C8080020D0080020A3
:1013E0000A4B1968EFF3108072B60A68002AFCD025
:1013F000BFF35F8F1B68BFF35F8F00221A6080F31B
:10140000108840BF002000217047C046D410002043
:10141000F0B5DE4657464E464546E0B583B0EFF39D
:10142000058203231340B54A990052580091904613
:1014300001229A409346B24B1A60B24B01935B462D
:10144000B1484363434608229B5E9946002B3ADA33
:1014500043469B881BB2002B00DB9DE043469B79F3
:10146000002B00D0E1E0434608241C5F002C20DB69
:1014700043465A6963001B19DB00D3189D68DC687A
:101480006B1C00D103E1A048009984466144826A44
:101490000B69AE1A9B1A9E4213D35A46036A1A422C
:1014A0000FD0994800F040FB8C4202DCC7D1854246
:1014B000C5D940BF03B0F0BCBB46B246A946A04662
:1014C000F0BD0D61EDE7424652695B0092464B4428
:1014D000DB009A4453469E68DF6800F025FB8F428C
:1014E000B6DC00D1F8E0002F00DAD9E052465346CE
:1014F00054691B69019A934200D1CCE0414652469F
:101500000820085E52880004210010439847040018
:101510000D0023002B4300D1C2E0002D00DBDFE0F3
:1015200030003900001BA94153469860D960002261
:101530009A5E002A00DA8BE743465D6953009C18E7
:10154000E4002C19A768E4688C4200DD80E702D132
:10155000874200D97CE74646328108360DE08C424E
:1015600000D1C6E01E000023F25E002A0ADB530011
:101570009C18E4002C19A768E4689B18DB00EB18A2
:101580008C42ECDD53461A804B46338043469B88A1
:101590001BB2002B00DA61E743461A69EFF31081B2
:1015A00072B61368002BFCD0BFF35F8F43469E8852
:1015B000012342465B42938036B21369BFF35F8FCB
:1015C00000221A6081F31088002E00DA46E74346B5
:1015D0005D69083342469C467700BF19FF00EF194A
:1015E000BB68604698460823D15E9246FC68002995
:1015F00007DA0EE0A24246D018000023C15E00299F
:1016000006DB4B005B18DB00EB18DA68A242F1DD69
:10161000524606800023FE5E3980002EDCDA9046BA
:1016200043469B79002B00D11DE70023424693716E
:10163000434646460821595E08364B1C00D138E720
:1016400047468946556902E006004B1C18D04B00FE
:101650005B18DB00E8180A008C46E95E43881BB281
:10166000002BF1DA01235B42DC178360C4604A453A
:1016700003D031803B8903803A81E1464B1CE6D19F
:10168000B8464C46F2E69A684245B5D9C0E7631CB5
:1016900000D0F8E605E7200023699847002825D107
:1016A000534642461B8813811269EFF3108372B6CA
:1016B00011680029FCD0BFF35F8F42465146528823
:1016C0000A804246494651801269BFF35F8F00216C
:1016D000116083F31088BBE6864200D803E7B7E6C3
:1016E000094800F021FA001969411DE7656824687E
:1016F0000FE7874200D835E744E7C046B81000201E
:101700003C700540111400100040054070B52E4C8F
:101710002569002D04D00A212C48FFF731FE70BD49
:101720002B4E0321300000F0F5F9E660FFF7C0FD15
:10173000284B03229C46D02322701B061B680121E4
:101740006370254B6044A3600F238000206102205A
:10175000638063694942A18019800231198647314B
:101760001D83585218315A5275325C3999521832C9
:10177000013199521832013199521832013199527E
:10178000083518329D5202311832995218320131FF
:101790009952183201319952183201319952183246
:1017A000013199521832013199520C4B0C49DC60CD
:1017B00001303562FFF7BAFD01210320FFF7A4FDD8
:1017C000084B1D60A7E7C04644030020D41000204A
:1017D0000040054040000034FFFF1000B81000201A
:1017E000111400103860054070B501000469EFF372
:1017F000108C72B620680028FCD0BFF35F8F0220E7
:101800000D5E4C6968004019C0002418002D37DBBC
:10181000208848800869BFF35F8F002606608CF33C
:101820001088E36063880498013320615B040598A5
:101830005B0CA26060611A1C002B1FD093B22804BD
:10184000628018430A69EFF3108C72B61368002B9C
:10185000FCD0BFF35F8F8B8823808D800B69BFF333
:101860005F8F00221A608CF310880B7801329A4047
:10187000CB6808498C4663441A6070BD0122DDE7DD
:101880000B69BFF35F8F00221A608CF31088012070
:101890004042F2E73C20000010B543890A1493420D
:1018A0001ADD53009B184269DB00D3180469EFF37B
:1018B000108C72B62268002AFCD0BFF35F8F5A8862
:1018C000090494B2090C8A4208D00369BFF35F8F00
:1018D00000221A608CF31088002010BD80221202B2
:1018E00014435C80012302698371BFF35F8F002181
:1018F00011608CF31088044902788C469340C268CA
:10190000012062441360E8E73C200000F0B50400C9
:101910000D0006267642F717C64636196F4100B508
:1019200082B08F4214D811D000F006F932003B008B
:10193000121A8B41002B17DC002B47D02000290006
:1019400000F004F902B080BCB846F0BD8642EBD985
:101950000022002316001F0000F0EEF832003B00CA
:10196000121A8B41002BE7DD00F0E6F832003B0055
:10197000121A8B41002B0ADB00230193154B320016
:10198000009315483B00FFF72FFF0028D6DB00230C
:101990009C46B046114A124E736A9F4204D8B16AFF
:1019A0008845CBD99F42C9D11168EFF3108072B638
:1019B0000B68002BFCD0BFF35F8F1368BFF35F8F02
:1019C0006146196080F3108820BFE5E7002AB5D092
:1019D000CAE7C046E113001044030020D4100020E1
:1019E0000040054070B5060000F0A6F8FA22040099
:1019F0000D00002330000021920001F0F5F9802352
:101A0000001969411B06994202D301200249404254
:101A1000FFF77CFF70BDC046FFFFFF7FF0B5D646E5
:101A20004F464646C0B504000D0082B0EFF305876F
:101A30008946002F0ED0344900204B6AAB4203D3B5
:101A40008A6A0130A24226D302B0E0BCBA46B1464F
:101A5000A846F0BD2D4B9846DB689A464346504653
:101A60001E7800F061F80B00514602000436B60003
:101A7000715820008E1A2900801A99418F4211DC7A
:101A80000ED020BF204A0020536A4B45DCD3926A17
:101A90000130A242D8D25B1B5A1E9341D8B2D3E781
:101AA0008642EED900F048F822002B00121A8B4132
:101AB000002B1ADB00230193154B220000934046B4
:101AC0002B00FFF791FE011E0FDD0F4B5A6A4A45AE
:101AD00017D39B6AA34212D34046FFF7DDFE0A4AA2
:101AE0000020536A4B45AFD3D1E7074A0020536A21
:101AF0004B45A9D3926A0120A242A5D2CBE74A4521
:101B0000EAD120BFE8E7C04600400540440300207A
:101B1000E113001010B5024A0248FFF7A7FB10BD01
:101B2000BC5B00107C1000200300416A0A00986A28
:101B3000596A8A42FAD17047034B596A0A00986A77
:101B4000596A9142FAD1704700400540064A536AEB
:101B50009942FCD807D1044B02E05A6A914202D163
:101B60009A6A8242F9D3704700400540F8B5DE46D4
:101B70004E4657464546E0B58B4605000A99180083
:101B8000160000F0DBFA0A9B6C001F02324B64194E
:101B90009C46A4006444636881469F4200D9676004
:101BA0002B1FDBB29846012B30D9C02380229B012A
:101BB000E31812011A60294BAD0059599A460029C1
:101BC0001BD17301E026226853401E408023424609
:101BD0005B01E3181E60012A30D9802380229B011B
:101BE000E31812011A6053464A4667605A51F0BC26
:101BF000BB46B246A946A046F8BD586900F09EFA19
:101C0000013043001B18033BFDD2DAE75B46012B92
:101C1000CBD1C02303229B01E3181A60023AA368C8
:101C20001A42FCD07301E0262268AD0053401E40EA
:101C300080230A4A5B019246E3181E605A462168D7
:101C4000514003220A401A6001225B469A40A36871
:101C50001A42FCD0C1E7C04600800040801000203E
:101C6000F0B546464F46D646C0B51F00344B44003B
:101C70009C462418A4006444636888461600FF2B21
:101C800002D880235B006360031FDBB29A46012BFE
:101C900030D9C02380229B01E31812011A60294B1E
:101CA00085005959994600291BD17301E026226805
:101CB00053401E40802352465B01E3181E60012AF8
:101CC00030D9802380229B01E31812011A608023FF
:101CD0005B0063604B465F51E0BCBA46B146A84624
:101CE000F0BD586900F02AFA013043001B18033B8D
:101CF000FDD2DAE74346012BCBD1C02303229B015F
:101D0000E3181A60023AA3681A42FCD07301E02675
:101D10002268850053401E4080230A4A5B01914699
:101D2000E3181E6042462168514003220A401A60AF
:101D3000012342469340A2681342FCD0C1E7C0464B
:101D40000080004080100020014B8000C058704788
:101D500080100020F8B5040021481E0017000D0077
:101D600000F0ECF90100380000F0E8F9069B3604B9
:101D70001B031E432368002B20DB1A4B1A49E31870
:101D80005A1E93418022920194465B421B0B174AD4
:101D90001B0363441360164A13601F000A689743CD
:101DA000FBD1144B2560E2182123A0601360236847
:101DB000002BFCDA0823E6601360F8BD3F2322689D
:101DC0001340AB42D9D1A3681B051B0D8342D4D16C
:101DD000EE22E368D2021340B342CED1EDE7C04613
:101DE000001BB7000040FDBF08C0004000E00040FD
:101DF00000F00040043000008023024A9B000B43A7
:101E0000D362704700800540142310B50100188884
:101E100004331B88984710BD162310B5010018889D
:101E200002331B88984710BDF8B54746CE4680B5AB
:101E30000F1E19D0142399460433040000250126EF
:101E400098464B461888434621681B88984701C42A
:101E5000431E9841013540420640AF42F1D1300067
:101E6000C0BCB946B046F8BD0126F8E7AA23064A29
:101E70001B0113608D235B00D3600449044B196080
:101E80005368002BFCDA70470040024000B0FA00B3
:101E9000006002407047C04610B50148FFF7CEF918
:101EA000E05B001070B5074D074EB54209D2002423
:101EB000013E761BB60808CD984723000134B34293
:101EC000F9D170BD105900104C590010054B064A4D
:101ED00006491A60064A074B1A6010000B689843BF
:101EE000FBD1704700E00040BFCDFBFE08C00040C2
:101EF000FE7F3C0000F00040044BDB6C002B03D164
:101F00008022034BD2021A607047C0460000115075
:101F10004C201150044A054B1A60054A1368DB0136
:101F20008033FBD17047C046FFFFFF0100F0004047
:101F300008C000404022034B9A675A671A67DA6666
:101F40007047C04600F0014010B5FFF7BDF910BD65
:101F5000F8B52749274C284D641AA6103200302EB8
:101F600000D930222800920001F016F8BC2C3BD892
:101F700030202F232C196407204A801BE40F9B1B61
:101F8000052B16D93700002C02D0B300771CEA507D
:101F9000001B33199B004108EB18C900C9181A60CF
:101FA0005A6008339942FAD1012303421CD0984366
:101FB000C619B300EA50731C2F2E15D09B00EA50AF
:101FC000B31C2E2E10D09B00EA50F31C2D2E0BD0EC
:101FD0009B00EA50331D2C2E06D09B00EA50731D47
:101FE0002B2E01D09B00EA50054B9D60F8BDC046EA
:101FF00000010010C001001000000020C10100100D
:1020000000ED00E0002310B5294C82B0A367FFF774
:102010002DFF0122274B1A60636C012BFCD1032298
:10202000254B1A60224A936B012BFCD1013300939C
:102030000121224A22480433FFF78CFE05230121A7
:102040000093204A2048FFF785FE00220221042049
:102050001E4BFFF705FE0022012105201C4BFFF758
:10206000FFFD0022002107201A4BFFF7F9FD002297
:1020700000210820174BFFF7F3FD8023DB000093BE
:10208000002200210920134BFFF770FD0022104BA6
:1020900000210620FFF7E4FD0420FFF755FE0E495E
:1020A00000F04CF801000020FFF7A6FE02B010BDC2
:1020B000008000403CB0004030B00040002F685924
:1020C00000800240008C864700C00240001BB70021
:1020D00040597307006CDC0240420F0001480421A4
:1020E000014B184760030020291E0010124A936F0D
:1020F0009B0815D29066D166002905D0FFE7FFE75F
:10210000FFE7516F106F704704B580210906C217B1
:102110005140002800D0C84303F0EAFB002104BD71
:10212000F0B5146E556E576F166FFFF7E3FF146628
:10213000556657671667F0BD000000D0114A936FCF
:102140009B0813D210665166002905D0FFE7FFE710
:10215000FFE7516F106F704704B5002801D00020D1
:10216000C04303F0C5FB002104BDC046F0B5146EAA
:10217000556E576F166FFFF7E5FF14665566576784
:102180001667F0BD000000D094464A4A926F92084C
:10219000624601D228E0C046F0B5464E346E756EF8
:1021A000776F366F00F020F89446424A1466556601
:1021B000576716676246F0BD94463E4A926F920892
:1021C000624601D254E0C046F0B53A4E346E756EA8
:1021D000776F366F00F04CF89446364A14665566B1
:1021E000576716676246F0BD002B24DB11D000292B
:1021F0003EDA00B5C943404200D1013100F038F861
:10220000C943404200D10131DB43524200D1013386
:1022100000BD002AEBD1002801D1002905D0002003
:10222000C90FC90701D1C043410800B503F058FBED
:102230000022002300BD00B500290ADBDB43524227
:1022400000D1013300F014F8C943404200D10131FC
:1022500000BDC943404200D10131DB43524200D1AD
:10226000013300F005F8DB43524200D1013300BDD9
:10227000002923D1002B18D1002A0CD0BC460D4FC9
:1022800038667A6600210023FFE7FFE7FFE77A6FF1
:10229000386F67467047002801D00748010000B535
:1022A00003F01EFB0022002300BD02000B000020F3
:1022B00000217047000000D0FFFFFFFF002B00D07F
:1022C000BFE0130C28D1002AE7D080B4114F396643
:1022D0007A66FFE7FFE730B4040C7B6F396F1B04AD
:1022E00023433B667A66FFE7FFE7FFE7C04684B219
:1022F0007B6F3D6F1B0423433B667A66FFE7FFE776
:10230000C04600232C042D0C7A6F386F00196941E8
:10231000B0BC7047000000D0F0B594460025140E04
:1023200001D112020835140F01D112010435940FA6
:1023300001D192000235D40F01D152000135D40BE6
:102340000134254F7C66254C3C660E0C93B2FFE7AA
:10235000FFE7FFE73C6F6643360C7703BE467343E7
:10236000DF0B5B04C01AB941130C7343DB18C91AA5
:10237000CE086643360CB64493B273431F0F1B015D
:10238000C01AB941130C73431F0B1B05C01AB94186
:10239000860D8F023E436643360C092D24DB520A1C
:1023A0007243801A7703460A6643360C16235B1B7A
:1023B000DE40DF40BF1964466643821B7046043529
:1023C00006330100D940A840C01900D30131A24210
:1023D00006D20023F0BD0000000000D0FFFFFFFF89
:1023E000121B0130F3D3F1E709277F1BFE4064463F
:1023F000A2B27243801A00D20139220C7243130C2C
:102400001204821A99410B007046043513370100FB
:10241000F940A840801900D30131002B02D1A2421B
:102420000AD2F0BD013000D30131121BFAD2013BB8
:10243000F8D1A24200D2F0BD013000D30131121B0D
:10244000F7E7F0B51C0C00D080E00CB400251C0AA6
:1024500004D11B02160E3343120208351C0B04D1A3
:102460001B01160F3343120104359C0B04D19B0052
:10247000960F334392000235DC0B02D192185B4178
:1024800001351C00971864410134464F7C66464C68
:102490003C660E0CFFE7FFE7FFE7C0463C6F664374
:1024A000360C7703BE4697B27743C01B00D2013982
:1024B000C01B00D201399FB27743C91BC91B170C3F
:1024C00077437E04FF0B801BB941CE086643360C70
:1024D0000C2D33DBB644120B1F053A431B0B97B28E
:1024E0007743C01B00D201399FB27743C91B170C39
:1024F00077433E043F0C801BB941860D8F023E435B
:10250000664329277F1BFE400C3D7746AF40BF192D
:1025100030BCA2B2ABB272437343801A9941220C11
:102520007243130C1204801A994102000B00013708
:10253000001BA941F9D2781E0021F0BD0C277F1B9A
:10254000FE4077467F0BAF40FF19E0E700245D1C9B
:1025500007D0144F7D663966FFE7FFE7FFE7FFE727
:102560003C6F95B29EB265436643401BB141150C6A
:102570001E0C6543664336042F0C3E432D04401B5E
:10258000B141994204D202000B0020000021F0BDAD
:1025900001D19042F7D3801A994101349942F2D384
:1025A000F6E70000000000D0FFFFFFFF4840414079
:1025B000484018B41B4B5B68FC46019308BD04DF20
:1025C0005F28001018B4174B1B68FC46019308BD28
:1025D00000DF692800109446134A926F920809D2CE
:1025E000624618B40F4BDB68FC46019308BD0CDF54
:1025F000212B00100C4AF0B5146E556E576F166FF4
:102600006246FFF7EEFF084A14665566576716677D
:10261000F0BD18B4034B9B68FC46019308BD08DF6E
:10262000C5290010580A0020000000D0FFB5504016
:102630004240504059404B40594000E0FFB5154FD3
:102640004C00640D03D0BC4204D10C0314D800200C
:10265000090D09055C00640D03D0BC4204D11C03C4
:102660000AD800221B0D1B0501264B4009D44B4004
:1026700003D58B4200D18242FFBD9942FCD19042EA
:10268000FFBD0B43DB1803431343F5D0C94349187F
:10269000FFBD0000FF07000000B5FFF7CFFF80413E
:1026A00000BDC04600B5FFF7C1FF01D9002000BD45
:1026B000012000BD00B5FFF7B9FF804100BD01203A
:1026C00040054A00121804D85A00121801D80020F8
:1026D00070470120704700000021002805D1704795
:1026E000C1174840401AFAD0C90713B5064B1B68FA
:1026F00098470CBC441CA2401005120B0349091B4F
:1027000009051943114310BDD01000201F0400001B
:1027100010B54C00620D8023D218DB00D21A5B0585
:102720007E2A10DD9E3A13DACC17090349081943B3
:102730005242D140640001341532202A05DAD040DB
:102740000843604310BD002010BD0846604310BD23
:10275000C80FC018013810BD18B4044B5B6AFC46A2
:10276000019308BD24DFD12C00100000580A00207E
:1027700018B4044BDB6FFC46019308BD7CDF512D80
:1027800000100000580A0020132370B51D78012D99
:1027900019D014DD1F48FFF73FFB06001E48FFF766
:1027A0003BFB1E4C80223100200000F0F5FB022D87
:1027B0002DD01B48FFF728FB1A4B186070BD1A4B31
:1027C000164CA364F5E7184B144C23606360A360B8
:1027D000E36023616361A361E36123626362A362D7
:1027E000E36223636363A363E36323646364A364B7
:1027F000E36423656365A365E36523666366A36697
:10280000E36623676367A367E367A364D1E7064BC7
:10281000A364CEE75344000053460000580A00204A
:102820004C330000D01000202D28001007B5604662
:1028300001880A0A0230DF2AFAD1C9B2820804D319
:10284000028840880004104300E00068014A5050AC
:10285000039007BD580A00200FB403BC0CBCF0B5B0
:102860000124E407634000E0F0B50C0DCF0F661EB5
:102870003605891B640503D3C943404200D30131A7
:10288000640D03D0661CF60A07D0E41B00207F000D
:10289000791C89078912803C24031D0DDF0F6E1EF1
:1028A00036059B1B6D0503D3DB43524200D3013336
:1028B0006D0D03D06E1CF60A07D0ED1B00227F00C1
:1028C0007B1C9B079B12803D2D032F1B661B58D43E
:1028D000A446202E46DA20371400BC401D00BD401F
:1028E000F24033412A4380185941CB0F05D0C943E8
:1028F000C043002264425041514162464D0D28D1EF
:102900000D0D07D100281FD0241940414941013A3B
:102910000D0DF9D0640006D3013000D30131002C35
:1029200001D140084000013A0BD4941CE40A04D1C0
:1029300012051144DB071944F0BDD907204B194398
:1029400000E0D9070020F0BD0029DDD1002CDBD14B
:10295000F0BD0132C6074008CD0728434908002EC4
:10296000E1D0D9E73C2E29DA203E40371400BC40A4
:1029700000D00124F24014431A00BB401C43D3177B
:10298000ACE7AC46202F08DA20360400B4400D0036
:10299000B540F84039412843A5E73C2F0CDA203FE9
:1029A00040360400B44000D00124F840044308003D
:1029B000B1400C43C117EAE710001900002494E766
:1029C0000000F07FF0B50C0D661E3605891BE60A87
:1029D0006405640D02D0651CED0A04D000200121BD
:1029E0000905803C2403A4461C0D671E3F05DB1B24
:1029F000E70A6405640D02D0651CED0A04D00022CC
:102A000001231B05803C24037740644497B484B2BF
:102A100096B27443070C7E43150C6F4380B2684333
:102A2000361802D3012000043F183004350C001979
:102A30007D41844688B29AB250430C0C62431F0C0D
:102A40007C438EB27E43921902D301263604A41928
:102A50001604170C3618674101BC81B29AB2514373
:102A6000040C62431B0C5C4380B25843121802D31F
:102A70000120000424181004130C401863412D1881
:102A80005E410020474106BC88B293B258430C0C0B
:102A90006343120C544389B251435B1802D30121A2
:102AA0000904641819041A0C091862416D1856417A
:102AB0000020474118BCF902720D1143F0026A0D63
:102AC0001043ED020A0D03D16D1940414941013B0C
:102AD000124E9B1B7600B3420ED26D0007D301301D
:102AE000002671416646354301D1400840001B0570
:102AF000C918E4072144F0BD0BDA013306D10130D7
:102B000004D101314F0D01D04908F2E7E10700205F
:102B1000F0BD013631050020EBE70000FF030000A7
:102B2000F0B51C0D671E3F05DB1BE70A6405640D4D
:102B300002D0661CF60A04D0002201231B05803C4B
:102B40002403D0252D060026F6432E661E096E6648
:102B5000CE0FF619B44649004F0D02D07E1CF60A7E
:102B600003D000200021403F3F033E1BB600B44489
:102B7000013F7F05C91B49082E6F013676089C026C
:102B8000950D25437543ED137543AD1301356D1058
:102B9000F603761B0CB4CC02450D2C43A2B2B3B2A3
:102BA0005A43270C7B43350C6F43A4B26C431B196B
:102BB00002D3012424043F191C041D0CA4187D41D8
:102BC00024196D41009A91B2ACB26143170C7C4359
:102BD0002B0C5F4392B25A43A41802D30122120471
:102BE000BF182204230C52187B41019C6C431B1913
:102BF000520ED9010A434401A01A81B2B2B2514324
:102C000003145A43360C734387B27743D617D2194D
:102C100000277E4136049B191704160C7F185E416D
:102C20007316ED18F301002680337541A90F06D104
:102C30006400690AE8055B0A184309D22FE0042200
:102C4000944480337541A90AA8059B0A184326D3EA
:102C5000404149412404009A019B0D005543641BE7
:102C60004343E41A95B286B27543170C7E43030CB6
:102C70005F4392B25A43B61802D301221204BF181E
:102C80003204330C52197B4152429C41002C02D435
:102C90000022013051414008CA071043490802B0E0
:102CA0006246D7079210084BD218084B9A4203D2BB
:102CB00012058918C919F0BD0020002A01DC39006D
:102CC000F0BD01331905F5E7FD030000FE07000024
:102CD000002200B5203200F004F8080000BD00001A
:102CE00000220B150AD410B5944600F05FF81414B6
:102CF000013400DA0021CB17144C204700200021BA
:102D000070476244343A0CD40C2A07DA040091402C
:102D1000904052422032D440214310BDD843D94381
:102D200010BD203207D40C4694405242203211414B
:102D3000D040204310BD0800C917203203D45242AE
:102D40002032104110BD1800190010BD032D0010D5
:102D50004A00520D144BD21A13DDFF2A1EDAD20597
:102D6000CB0FDB071A43C300400F0903490A08438E
:102D700010435B0001D301D0013070474308FBD200
:102D8000704702D0C80FC00770470A031213013200
:102D9000F8D1420F072AF5D1012200E0FF22C80F27
:102DA00000028018C0057047800300000A0DCC0F98
:102DB000531E1B05C91A520503D3C943404200D311
:102DC0000131520D03D0531CDB0A07D0121B002027
:102DD0006400611C89078912803A1203014BD21AE0
:102DE00070470000FF03000051434343C9188C465D
:102DF000110C83B24B4310B4040C614392B280B205
:102E0000504362431C041B0C001910BC59411304AD
:102E1000120CC018514161447047000048404140C5
:102E200048400E4B5B6818470C4B1B6818470C4A10
:102E3000936F9B0802D2094BDB681847F0B5146EFC
:102E4000556E576F166FFFF7F6FF054A1466556605
:102E500057671667F0BD014B9B681847580B002059
:102E6000000000D0014B5B6A18470000580B00209F
:102E7000034BDB6FFC4618477CDF212F001000005E
:102E8000580B0020014BDB6C18470000580B00204A
:102E9000132310B512481C78FEF7BEFF0100012C69
:102EA0000AD003DD80220F4800F076F80E48FEF7C6
:102EB000ABFF0E4B186010BD0A4C5422200000F0EE
:102EC0006BF80B4B6365A365E36523666366A366D6
:102ED000E36623676367A367E3672362E361E5E76C
:102EE00053460000580B00204C330000D010002047
:102EF000F52E001007B5604601880A0A0230DF2A65
:102F0000FAD1C9B2820804D3028840880004104371
:102F100000E00068014A5050039007BD580B0020A4
:102F2000C30FDB0741000A0E07D0FF2A08D00909AA
:102F3000054A891819434007704719000020704757
:102F40000249C918FAE70000000000380000F07FCD
:102F500010B5040002F0B2FB002804D0034B0419A2
:102F60009C4200D810BD0248FEF768F9000004201A
:102F7000EC5B001010B502F0ABFB10BD0148042162
:102F8000014B184770030020291E0010014B1B68DD
:102F90001847000070030020014B5B6818470000D1
:102FA000700300209A4200D2885470477047C04690
:102FB000F8B55746DE464E464546E0B599460A9B6B
:102FC00007009A460D9B884693460B9C9B073BD176
:102FD0000C9B9C423DD21E1B0B9415000C005E44C2
:102FE0002A004B46013521002020B847B542F7D1D1
:102FF000A0460B9C002C20D0454636195346321B68
:10300000013C185D29004B46B847002CF6D12B0037
:10301000350098460D9B9B070FD55B46EC1A0C9B21
:10302000A3420AD9464698462A004B463100202042
:103030000134B84701354445F6D32800F0BCBB46FF
:10304000B246A946A046F8BD16001500002CD3D103
:10305000E0E71600002CCFD11500EEE7F0B54F46A3
:103060004646D646C0B584B098460EAB1B7894460B
:103070009946129B0D9C109F119E9A0725D4002EF5
:1030800065D1BC4221D201221A409246202C00D1A7
:10309000E9E00C9A551E302202E0202C00D17BE0A2
:1030A00001342A55A742F8D85246002A0DD0B4421E
:1030B0000BD20C9A551E3022202C02D171E0202C0C
:1030C0002DD001342A55B442F9D1DA063CD55A053F
:1030D0002ED4002C28D10F9A102A00D1B6E0022A53
:1030E00000D1BCE030220C9C227001244A46002A08
:1030F00065D15A0700D499E02B220C9D2A55013442
:1031000003930C9B62460093029643460194FFF79B
:103110004FFF04B0E0BCBA46B146A846F0BD20243B
:10312000DA06EDD55A0503D4A74266D0B44264D07E
:103130000F9A102A71D0022A57D0202CE0D02200FA
:10314000013430250C9FBD54202CD9D0CEE701226C
:1031500015001D40AA461A4236D04A46002A4AD1D6
:103160000C321A4247D1BC42A1D2202C91D1202E40
:1031700017D82024DA06C3D55A051BD4202F01D036
:10318000202ED5D11F220F9D102D6FD0022DD8D10A
:1031900062250C9FBD54D0E75246002A79D0202EDC
:1031A000BDD92024DA06ABD55A0503D4202FE9D0A7
:1031B000202EE7D00F9A102AA2D12024A0E72D229A
:1031C0000C9D2A5501349BE7BC4200D37DE7202C9F
:1031D00000D05EE7DA06F0D55A05EED4202F62D093
:1031E000202EEAD134001F22CDE7202C00D187E722
:1031F00022000134CCE7013EB5E7621E012CC2D1AA
:103200000F9A102A00D06AE79A063BD558220C9CE8
:103210002270283A6270022468E79A060ED4202CA5
:10322000CBD078220C9D2A55013486E71A0700D4AA
:1032300066E720220C9D2A55013461E7202CBCD082
:1032400058250C9A12191570013476E79A0608D59C
:1032500058220C9C227030226270022446E76032B1
:10326000F7E77822F5E7002A83D1B3E7A21E013CF5
:103270009D0603D478250C9FBD5460E758250C9F0C
:10328000BD545CE778220C9C2270483A627002249C
:103290002CE7DA0600D433E75A058BD4202F00D070
:1032A00044E71F226FE73C001F226CE710B500289F
:1032B00000D110BD01F08EFBFBE7C0460B0010B53E
:1032C000002802D049681B68984710BDF0B55746E2
:1032D0004E464546DE46E0B599B082468946904660
:1032E0000893229A239B10001900FFF7E8F90028A1
:1032F00000D0CDE0229823990122D94B5242FFF70A
:10330000D9F9002800D0C3E0229823990122D54B97
:103310005242FFF7C1F9002800D0B9E02298239962
:1033200000220023FFF7B8F9002800D0F1E1229E27
:10333000239F8023269ADB001A400D92269A1A4278
:1033400001D1062324938023269A1B011A403B00B7
:1033500093460996334300D0B3E0002A00D0C2E17F
:10336000002300240A930B94002304250993259B32
:103370000024AB4200D95C1B0223269A1A400C920F
:10338000269A134203D06B426B415B421C40099B5F
:10339000002B07D00A9A0B9B30003900FFF71BF96E
:1033A00006000F002298239900220023FFF774F9EA
:1033B000002803D0802109067B181F00269AAA4BFB
:1033C000009601971340089E0493249B0394029354
:1033D000424633004946504600F0AAF90400002D49
:1033E00067D02020269A4946024013005A42534192
:1033F0005B42621C18400A92330022004530D047DD
:10340000099A6F1ED317D4185C40D30F9B46002532
:1034100001E0202D13D008AA94461F232000634406
:103420000A2101355E19FEF789FE30313170200026
:103430000A21FEF783FE26000400092EE9D80523A1
:103440000693002304930A3303935B46089E02937A
:1034500010AB0A9A009349463300504605970195F0
:10346000FFF7FCFD0C9A0400002A22D04246851A80
:10347000259AAA421DD9B046574616002200434657
:10348000494620200135B8470134AE42F6D810E055
:10349000269B42460493259B49460393249B504612
:1034A0000293229B239C00930194089B00F040F917
:1034B0000400200019B0F0BCBB46B246A946A046A5
:1034C000F0BD6A4B78009C46400D6044FFF708F958
:1034D000674A684BFFF79DF8674A684BFFF772F839
:1034E000674A3B031B0B1A4304000D0009981100A7
:1034F000644B0022FFF75DF8634A644BFFF789F8DD
:1035000002000B0020002900FFF75CF8FFF700F92C
:103510000990FFF7E5F85E4A5E4B04000D00FFF7E7
:1035200078F800225C4BFFF74DF8FFF7F1F85B4AA3
:103530005B4B29000C902000FFF76BF804000C98FF
:103540000D00FFF7CDF8574A574BFFF762F802001E
:103550000B0020002900FFF72CF804000D000200EA
:103560000B000A940B95FFF754F804000D000A981D
:103570000B9902000B00FFF725F800220E900F9127
:103580004A4B20002900FFF726F80022484BFFF79E
:1035900019F802000B0020002900FFF71CF8002298
:1035A000444BFFF70FF802000B0020002900FFF743
:1035B00012F80A9A0B9B0D0080210400C905002017
:1035C000FEF7F7FF02000B0020002900FEF7FAFFCC
:1035D00002000B000E980F99FEF7FDFF0022284B0A
:1035E000FEF7F0FF344B0C9C9C46644423050022FC
:1035F000FFF70FF804000D0002000B003000390047
:103600000A940B95FFF748F800285DD123002A00A3
:10361000C625099963318D42AD4159466D42043545
:10362000002900D1A3E6134363D030003900234AB8
:10363000234BFFF737F8002807D00022300039006D
:10364000204BFFF729F8002853D1249B002B00D1F1
:103650008DE60D9B5A1E9341249AD31A249386E635
:10366000FFFFEF7FFFFFEFFFFFF7FFFF01FCFFFF13
:10367000FB799F501344D33FB3C8608B288AC63F61
:103680000000F03F0000F83F61436F63A787D23F1F
:1036900071A379094F930A400000E03F1655B5BB6E
:1036A000B16B0240EF39FAFE422EE63F00002C409B
:1036B0000000244000001840FF0300002D431CEBD5
:1036C000E2361A3F80842E41099B0022013B099378
:1036D0002000164B2900FEF77EFF0A0001000300C0
:1036E0000A910B9294E7002300240A930B94002381
:1036F0000993249A099B9A4214DDD31A013B24931F
:103700008023269ADB001A43002300252692099382
:103710002DE6802212069446229B1E00239B6344C2
:103720001F0006E600232493EAE7C0460000244079
:10373000F0B54546DE464E465746E0B595B08B4659
:10374000904699461E9A1F9B0A9019001000209DD2
:10375000FEF7B5FF002800D0B0E11E981F990122A6
:10376000C74B5242FEF798FF002800D037E11E9861
:103770001F990122C34B5242FEF79CFF002800D044
:10378000A7E01E981F990022BF4BFEF793FF002869
:1037900000D088E01E981F990022BC4BFEF77CFFEA
:1037A000002800D07FE01E981F9900220023FEF71A
:1037B00073FF002800D0FAE000230B938023229CA3
:1037C000229ADB001C401A4200D102E1092D00D8E8
:1037D0007CE106A98C462C00172200233021093CED
:1037E00062440133D154EF1A202B00D132E1A342BD
:1037F000F7D10022A44B069207931E981F99FEF75B
:1038000087FF0500FEF76CFF02000B001E981F9952
:10381000FEF7CFFE069A079BFEF7FBFE0890099184
:10382000FEF79AFF0600FEF757FF02000B0008980C
:103830000999FEF7BEFE0022954B08900991FEF70C
:1038400039FF002800D1D2E001363000FEF744FFF6
:10385000069A079BFEF726FF002801D000260135B7
:10386000AA46002F00D098E02800FEF739FF02009A
:103870000B001E981F99FEF79CFE854B0022060048
:103880000F00FEF709FF0CAB9A46002845D1002235
:10389000300039007E4BFEF70DFF00283DD1EB07CD
:1038A0003BD5013539E0229B42460493219B594682
:1038B00003930A981E9B1F9C0295009301944B460C
:1038C000FFF704FD15B0F0BCBB46B246A946A046C2
:1038D000F0BD229B5B0767D403226E4B22990192B5
:1038E000039121990291009342464B4659460A980A
:1038F000FFF75EFBE6E706AA944617232800634419
:103900000A2101341E19FEF7F1FB30312800317015
:103910000A21FEF7EBFB051E76D0202CEBD103230A
:10392000229A1340012B1DD1219B002B1AD00B9BF7
:10393000002B00D0BBE0229A0C33134200D0B6E03B
:10394000219BA34200D887E006AB9C461722302378
:10395000624404E02199013413558C4259D0202C43
:10396000F8D12024229B01940393219B0293534678
:10397000B9E706AA944617230A21634430000134AC
:103980001D19FEF7DBFB3031297030000A21013FA1
:10399000FEF7D4FB092E46D90600202CE9D1554666
:1039A0000CAB20249A46B8E704223B4B96E71E9ABC
:1039B0001F9B00200021FEF7FCFD01230B938023B9
:1039C000229C229ADB001E901F911C401A4200D0BC
:1039D000FCE60022314B0627069207930DE7229B57
:1039E0000393219B0293042301932D4B7BE7002239
:1039F00008980999264BFEF74FFE002800D02FE7C4
:103A0000002E4FD101362BE70323229A1340012BBE
:103A100066D0202CA6D00B9B002B1FD02D23524606
:103A2000135501349EE75546202CB9D030233A195E
:103A3000002F08D0172006A9013409180B55202C97
:103A4000AED09442F6D10CAB9A462E235246135573
:103A5000013462E72024CCE6202C83D0229B5B0734
:103A600008D4229B1B0700D47CE720235246135521
:103A7000013477E72B2352461355013472E7C046D1
:103A8000FFFFEFFFFFFFEF7F65CDCD4165CDCDC1DE
:103A90000000E03F545C00104C5C001080842E411C
:103AA0005C5C0010F30700D4DAE60136D8E6219B0F
:103AB000013B2193A34200D946E7AAE7229B039347
:103AC000219B029303230193074B0CE7074BEA006A
:103AD0009B185C681B682F000693079400248CE6F3
:103AE000219B002B95D022E7585C0010805F0010CE
:103AF000F0B55746DE464E464546E0B5A5B01F0038
:103B00002E9B91460D93CA4ACA4B82468B461A6039
:103B1000002900D129E2002338789846002800D1F6
:103B20002BE2C54B44460C93C44B55464E460E9370
:103B30000AE0631C9846220033005946A8474446D1
:103B40003878002800D187E001372528F1D10823F3
:103B50009A46043B9946023B9846013B00229C460C
:103B60000B943878791C0300203BDBB2102B03D870
:103B70000C9C9B00E3589F460300303B0B9C0B9230
:103B8000092B3AD9002398462A2800D1DDE00023EA
:103B90009A462E284BD00300683BDBB2122B1ED86E
:103BA0000E9A9B00D3589F4663460F001A43D8E7EE
:103BB00043460F001A43D4E74B460F001A43D0E7A1
:103BC00010230F001A43CCE753460F001A43C8E7EF
:103BD00080235B000B9A78781A430B9201310F0017
:103BE00067284FD82428A4D90300253BDBB2422BF9
:103BF0009FD893499B00CB589F46002398460B9B28
:103C000047469C4600E00131BB00DB195B001F18F2
:103C10000878303F0300303B092BF4D963460B93FF
:103C20000023B8469A460F0001312E28B3D18020D8
:103C30000B9AC00002430B9230225242944678788D
:103C40000B0084446246092A00D8AAE12A2800D140
:103C5000B9E10F0001319EE7A046AA46B146C8452A
:103C600003D301235B424B4498464B464246594698
:103C70000020D047200025B0F0BCBB46B246A94684
:103C8000A046F0BD01006939C9B20F2900D950E73B
:103C900001238B409C466B4B994663464A46134032
:103CA0000F9362464B461A4200D068E10A2956D06B
:103CB000072900D03DE70D9B02CB9846002900D094
:103CC00092E10B9B10211A008A4310001131084326
:103CD000814680201A00C0000240110003421CD11E
:103CE00014AB9C461F220F2362440D959C46150081
:103CF0000F9B0B9402E0202B0CD0110064460C406B
:103D000020003730092C00D807380133E8540A095D
:103D10000F29F0D80B9C0D9D0F934B46082206935C
:103D20005346059208320392002204930F9B02929D
:103D300001931CAB22000093594633002800FFF783
:103D40008DF9434604000D93FAE60D9B04CB904693
:103D5000002A79DB78780D930F00013117E70D9B6E
:103D600002CB14930B789C4618005346002B00D1CD
:103D700034E1002815D05346013B013399460D9498
:103D80000B9C89444A460B00A14601E0934203D0B4
:103D90005C780133002CF9D14A465B1A0D9C0B92DA
:103DA0000F938023DB0099460B9A13400D934B46EB
:103DB0001A4204D00F9B534501D953460F93022357
:103DC00099460B9A13400B934B46134200D1F5E1F1
:103DD0006346002B00D1D6E10D9B002B00D182E180
:103DE0000B1BD14631009A463B00A1442E005F4692
:103DF0004D4622009B46894609E04B463900541C3B
:103E0000B0475346185D002800D192E12200954248
:103E1000F3D14B465A46A946BB46350017001E0053
:103E20004C460B9B002B00D0ADE1149B0D9387E615
:103E3000F13A0010B4100020E05D0010245E001084
:103E4000705E0010419000000B9A283802430B92DC
:103E500042465242787890460F000D93013196E623
:103E600078786C2800D15DE180230B9A5B001A43BF
:103E70000B920131B3E680239B00ABE6787868288B
:103E800000D148E180230B9A01311A430B92A6E638
:103E9000672800D1B2E0472800D11AE1452800D1B7
:103EA0001CE10B9A0721049242460D9B03920733B3
:103EB00052468B43190002920CC9280000920193CC
:103EC0000D91220033005946FFF700FA040037E64F
:103ED000462800D18DE00B9A0721049242460D9BA3
:103EE0000392073352468B43190002920CC92800F3
:103EF000009201930D91220033005946FFF718FC00
:103F000004001DE6631C9846220033005946252014
:103F1000A847444614E60D9B04330F93631C99464F
:103F20000B9B9A0700D40AE10D9B22001878594692
:103F30003300A84743464444012B00D86FE1B04604
:103F40002E0025004C46B9465F4622004346013408
:103F500039002020B047AC42F7D12C00BB463500D9
:103F60004F4646460F9B0D93EAE5D64B38789A4666
:103F700000239846002800D0D3E500246FE66F2880
:103F800042D000D8FDE11023782800D19BE00B9AA5
:103F90009A430B920A239C46002314930A330F93EF
:103FA00038E057460B9AB900C919490001330F1878
:103FB0001878303F010030390929F4D9BA460B92FC
:103FC0001F00591CE7E50D9BB87804CB0237D1439D
:103FD000C9170A4092460D93791CDCE5002800D1F0
:103FE000DFE602235B42C8E621200B9A024391469A
:103FF00076E620230B9A1A430B926CE780230B9AE8
:104000001B011A430B924CE708239C460023149390
:1040100008330F930B9880230200DB001A40110035
:104020000200184200D080E00C239A431000802345
:1040300002009B001A400B92184200D0F1E080234E
:1040400002005B001A4091460D9A04321492184205
:1040500000D0C3E2430600D5D7E0030600D421E335
:104060000D9B1B880993002B00D02DE11033984342
:10407000002900D128E10023994643460593534681
:1040800004930F9B06900393002302934B460193E6
:104090001CAB22000093594633002800FEF7DEFFD8
:1040A0000400C2E6582809D0622800D0E3E20223C7
:1040B0009C460023149302330F93ABE720230B9A03
:1040C0001A430B92103B9C460023149310330F931A
:1040D000A0E780230B9A1B011A430B9220230B9A13
:1040E0001A430B92DDE60B1B9A460F9B99463B0049
:1040F00037005E469B4622003B003100A8475346EE
:104100000134185D0028F6D14B460F935B46B34649
:104110003E001F0085E6C0230B9AB8781A430B9225
:10412000F91C5CE5C0239B00F6E70D239A431000C1
:104130007DE75B463500BB464E461F0071E64346B1
:10414000012B66D9631E434432002E001D003B0044
:10415000A2465F4691469B4622004B4601343900F9
:104160002020B047AC42F7D15B463500BB464E46F7
:10417000A14654461F000D9B4A4618785946330005
:104180004444A847EEE60F9BA146984500D84CE66C
:104190004444E41AB0462E0025004C46B9465F461A
:1041A00022004346013439002020B047AC42F7D109
:1041B0002C00BB4635004F46464636E60F988045F4
:1041C00000D873E24346E218131A32002E001D0095
:1041D0003B0091465F469B460F9122004B460134BF
:1041E00039002020B047AC42F7D15B46BB461F00E8
:1041F00043460F9901330F930B7835009C464E468A
:104200006046002800D0E7E50FE60D9B1B78099378
:1042100029E70D9B2200187859463300A8474C46E1
:10422000A0E60D9AFA3BFF3B07329A4301339946C9
:1042300091444B460D931368526815921A4306D168
:104240001032904300220992002900D083E06122BD
:10425000810600D54122D2B20A9214AA91460A9A46
:1042600000210A3A0B9242461792524618925A4639
:10427000B24609911E001F31149B4944BB46169457
:104280001A950024674698468946159D19901B92F9
:104290000AE03032D2B24B4601341A55A8454CD010
:1042A000202C4CD006000D003A00002330002900DD
:1042B000FDF782FFD2B2092AEBD90B9B9C466244E0
:1042C000D2B2E8E7AD2F00106123820600D541236A
:1042D000DBB20A3B0B93434614A91F228C4615936D
:1042E00053466244B2460D9417974C468046A94601
:1042F0001700099D0F9E169308E03033DBB201349E
:104300003B55B5420ED3202C0CD0050031002800BF
:10431000FDF714FFCBB20929EFD90B9A94466344F9
:10432000DBB2ECE7159B40469846169B4D46564639
:10433000A1469A460D9C179F9FE6B742B0D9179B9E
:1043400056469846189B5F469A461B9B09949B4687
:10435000169C19981A9D43460593534604930F9B48
:104360000690039300230293099B01931CAB220048
:104370000093594633002800FEF770FE0400FFF753
:10438000DFFB10230B9A9A430F92692800D091E12A
:104390000B9980230A00DB001A4010000A00194222
:1043A00003D0112118008A430F920F9A8023110025
:1043B0009B0019408C461A425BD1802311005B00A0
:1043C000194089460D9904310B911A4200D0B2E090
:1043D00013005B0600D4EDE00D9B1B781A00D90F8B
:1043E0000D91002B00D1A3E0100014AA9446424680
:1043F0001F23159252466344A846BA464D4614946C
:10440000B14604001F00169201E0202D0FD02000BD
:104410000A21FDF793FE01357E19303131702000FD
:104420000A21FDF78BFE26000400092EEDD8159B0E
:104430004E46A94645469846169B57469A46149CB2
:104440000F9B069343460593534604930A23039315
:104450000D9B02934B4601931CAB220000935946DF
:1044600033002800FEF7FAFD0B9B04000D93FFF7C5
:1044700067FB07220D9B07339343013294469C440C
:1044800062460D920CCBD90F0B911100194300D14C
:104490009BE0D917139112915140109113995940F3
:1044A000119110981199129A139B801A99411090AA
:1044B000119114AA944642460023159252469946F9
:1044C000169232001F336344A8464E46BA461494EF
:1044D0001F00109C119D914601E0202E10D020005D
:1044E00029000A220023FDF767FE013630322B0037
:1044F000BA550D0022000400002BEED1092AECD899
:10450000159B10941195454698464B46169AB14610
:1045100057461E009246149C0F9B069343460593F4
:10452000534604930A2303930B9B02934B461CE7C9
:10453000002885D159E70D9B1B68DA0F1100002B6D
:1045400000D1A6E0DA179818504014AA91461F230C
:1045500042464B44A8460D94169704006546B14662
:104560001F001491159201E0202D0FD020000A2188
:10457000FDF7E4FD01357E193031317020000A214C
:10458000FDF7DCFD26000400092EEDD8159BAC4696
:1045900045469846149B4E4619000D9C169F0F9B4E
:1045A0000291069343460593534604930A230393CB
:1045B000634650E713001B066ED50D9B00229B5EE1
:1045C000D9175A184A4092B209E7002399460028A1
:1045D000A2D100220023109211936AE70D9B1B6861
:1045E0009946002B03D110339843002938D1612319
:1045F000820600D54123DBB20A3B0D934346169356
:10460000534614A91F228C4617932B0062444D4633
:10461000B246159418978046170099460B9C0F9E3A
:1046200008E03033DBB201343B55B5420ED3202CC9
:104630000CD0050031002800FDF780FDCBB2092920
:10464000EFD90D9A94466344DBB2ECE7169B4046E3
:104650009846179B56464D469A460B94189F159CB4
:1046600043460593534604930F9B06900393002300
:1046700002930B9B0BE50B9980230A00DB001A4089
:1046800010000A00194200D08BE610239A430F92C3
:104690008BE6002883D158E70D9B1B68D9175A1861
:1046A0004A409CE60D9B1B680993DCE40300013340
:1046B0000F93A5E50B926DE40CB430B585B008AC52
:1046C00008CC064D0A000094010028000394FFF76F
:1046D0000FFA05B030BC08BC02B01847A52F001077
:1046E00000B585B0039101210290009303481300A7
:1046F0004A4202A9FFF7FCF905B000BDBD32001027
:1047000010B5094A0300146884B0002C08D00122B7
:1047100000910648524203A9A047012004B010BDF1
:1047200000F0A4F90020F9E7B4100020AD32001029
:1047300000BEFDE7094A03001068002805D00849BB
:10474000C3188B4207D81360704706480449C31842
:1047500010608B42F7D901204042F5E7B0100020ED
:1047600000000420DC14002010B5041E0DD0FDF75D
:10477000E3F9074B1A685B68801A99410023054AE0
:10478000FDF702FD20606160A260002010BDC04600
:10479000500A002040420F0010B5FFF7C9FFC04685
:1047A00070B5FDF77FFB074D074EB54209D20024D7
:1047B000013E761BB60808CD984723000134B3426A
:1047C000F9D170BD4C59001058590010030010B5B4
:1047D000080011001B68984710BDC046F0B5C646DA
:1047E00000B5437D07000D001600002B38D0002ACD
:1047F0002EDD00216A1E90466A5C037D4C1C002061
:104800000A2A0CD0A64216D043461B5D21000D3B60
:104810005A4253416A5CDBB24C1C0A2AF2D1002B8B
:10482000F0D1884217DB022110483B689847A64226
:1048300007D02000E8E7864203DD311A3B682818DC
:104840009847AD19013D2B780D3B5A4253413B75BA
:1048500080BCB846F0BD091A3B6828189847E2E7C3
:104860000368110028009847F2E7C046D05F0010A7
:10487000F0B5C6460B6806000C0000B5802B06D0CC
:104880005A1C2260E418267180BCB846F0BD0F4B5C
:104890001D68002D16D00B1D98460D4F02E02D69A6
:1048A000002D0FD02B68002BF9D03B68002B01D0D6
:1048B000AB42F4D1280041462268FFF78FFF2D69F3
:1048C000002DEFD101220023DBE7C046A810002015
:1048D000AC100020F0B5DE4657464E464546E0B5E2
:1048E00085B017001C0006000D00FDF725F9002318
:1048F000314A12184B41802109068B4202D3012212
:104900002E4B52422E4908008A4600F0F9FF0190D2
:104910006B1C03D1300000F0FFFE0500002C26D0F8
:10492000284B9846284B1C68002C15D0002F21D10D
:10493000264F02E02469002C0ED02368002BF9D00A
:104940003B68002B01D09C42F4D120002A003100AA
:10495000C0472469002CF0D1019B002B28D12800EE
:1049600005B0F0BCBB46B246A946A046F0BD184B08
:104970009846D7E7154B994602ABDF1D0A239B46A5
:1049800002E02469002CE7D02368002BF9D04B46C5
:104990001B68002B01D0A342F3D12A003100200074
:1049A000C0475B460122390020003B70C047E8E762
:1049B000504600F08DFFD2E740420F00FFFFFF7F1F
:1049C000C8080020DD470010A8100020AC1000200F
:1049D000CD470010F0B5CE46474680B583B06B4654
:1049E0000600DD1D2870FDF7A7F800231A4A1218EB
:1049F0004B41802109068B4202D30122174B5242C0
:104A000017490800884600F07BFF164B81461C685A
:104A1000002C14D0144F02E02469002C0FD023681E
:104A2000002BF9D03B68002B01D09C42F4D1200030
:104A300001222900FFF7D2FE2469002CEFD14B465A
:104A4000002B05D1300003B0C0BCB946B046F0BD64
:104A5000404600F03DFFF5E740420F00FFFFFF7FBB
:104A6000C8080020A8100020AC10002070B5040079
:104A700000F052FE01230100050001222000FFF793
:104A800029FF084B1C68002C06D06368002B05D05A
:104A900098472469002CF8D1280070BD2469002CA7
:104AA000F3D1F9E7A8100020F0B5CE46474680B50F
:104AB000A3B004000D00FDF73FF80023294A1218A7
:104AC0004B41802109068B4202D30122264B5242E0
:104AD000264F380000F014FF002306000193220047
:104AE0002B00234801A9FFF7FBFD019B8046002B0B
:104AF00014D1204B1C68002C06D06368002B0BD00F
:104B000098472469002CF8D1002E25D1404623B0C7
:104B1000C0BCB946B046F0BD2469ECE7154B1D6832
:104B20009946002D1CD0144C02E02D69002D0FD0A9
:104B30002B68002BF9D02368002B01D0AB42F4D1B5
:104B40002800019A02A9FFF749FE2D69002DEFD137
:104B50004B4601951C68CEE7380000F0B9FED5E75A
:104B60000195D1E740420F00FFFFFF7FC8080020FA
:104B700071480010A8100020AC1000200FB400B540
:104B800083B004A901C90191FFF78EFF03B008BCEF
:104B900004B0184710B5024800F004F810BDC04634
:104BA000C810002010B588B004000D22002168460E
:104BB000FEF7ECF90D22002104A8FEF7E7F94B23DC
:104BC0006A466846137004A90D2200F079FE15218B
:104BD000082220006944FEF7DFF908B010BDC04686
:104BE000F0B5DE4657464E464546E0B5070083B071
:104BF0000CA80192027800203C689B46E066616048
:104C000001219146E166002B34DD5A1E9046802238
:104C10005200944680264025616F1029FCD0002167
:104C2000002801D13979890240451DD062461143DF
:104C30002161A159616B0D420BD00120636D40428F
:104C40004B463B7103B0F0BCBB46B246A946A046FA
:104C5000F0BDA16F0029ECD02169019B19540130EE
:104C60008345EDD03C68D7E74B4601225A405302BA
:104C70001943DBE70020E3E7F0B557464E46DE4632
:104C800045468446E0B583B01F000CAB18786346F8
:104C9000914600221B680190DA6601325960DA669B
:104CA000002F4FDD7A1E904662461279012692024D
:104CB000802493463A004640760280253700002043
:104CC00046461021A2469046AD00841B62425441E4
:104CD0004A4664423C4000945C46125C2243009C7D
:104CE00022431A615A6B1142FCD052469C58002C48
:104CF00010D1B04221D00022013093468045E4D14A
:104D00006346019A1A7103B0F0BCBB46B246A9468D
:104D1000A046F0BD5A6D012293465A6B2A42FCD040
:104D20001A6E5A46002AE6D0002C03D0E30701D4BD
:104D30002407E5D401204042E2E7019A002ADAD1B3
:104D40009346EAE70020DBE7F8B5DE4657464E46D5
:104D500045468346E0B505200C00FCF7F5FF06004C
:104D6000600821008019FDF7E9F943009846804466
:104D7000070005214046FDF7E1F93B1A9A461E4B14
:104D80008146700080199C4231D81C49FDF7D6F944
:104D9000451C5B461C680023E366226804335A40C6
:104DA0000233134080225201A21813605346E3617C
:104DB0004B462362434601204F2B03D950214046E6
:104DC000FDF7BCF9A023E050E36F39005D400C4BC8
:104DD0002D042D0CE3181D6001233000E366FDF760
:104DE000ADF9F0BCBB46B246A946A046F8BD0549A0
:104DF000FDF7A4F9451CCCE73F420F0080969800D0
:104E00007C10000040787D010F4A70B5821A531E55
:104E10009A410E4BD20008321A600D4B0D4C1A60AD
:104E2000150023689D432B1EFAD166240268FF34C7
:104E30000571D5661460633C8833FF3CD563956388
:104E4000D450FFF781FF70BD8803002000E00040D0
:104E500000F0004008C0004010B582B004AC2478D7
:104E60000094FFF709FF02B010BDC04610B582B034
:104E700004AC24780094FFF7B3FE02B010BDC04626
:104E8000F0B54E464546DE465746E0B50D000B35BB
:104E9000060085B0162D27D8102900D9DAE000F0D9
:104EA0002FFC102518230221C84FFB181A005C683C
:104EB000083A944200D147E103226368A168934312
:104EC000E268CA6091600121E3185A6830000A4321
:104ED0005A6000F017FC2000083005B0F0BCBB465B
:104EE000B246A946A046F0BD07239D4300D5B1E0D8
:104EF000A94200D9AEE000F003FCFC235B009D4218
:104F000000D296E1690A00D1A8E0042900D950E155
:104F100038239846A90988443931CB0008225242E7
:104F20009446AA4FFB189C446346DC68A44514D001
:104F3000032399460B0061469C4607E0E068002A7F
:104F400000DBFBE0814200D1FCE004004A466368DC
:104F500093435A1B0F2AF1DD41463A003C6908325F
:104F6000944200D1D9E0032063688343581B0F2883
:104F700000DD62E13A617A610028A4DA7A6890463D
:104F800080229200934200D3E4E0DA08580901231A
:104F90008340404618438046D300DB199A68786006
:104FA000E360A2609C60D46001208B109840404573
:104FB0005CD8434603420AD1032399434346400049
:104FC0000431034203D1400004310342FBD00323E8
:104FD000B3469C460E00B8460190F00040440100E4
:104FE000B246CB680BE064465A681F00A243DB68F8
:104FF000541B0F2C00DDEFE0002C00DB09E199428F
:10500000F1D101239946CA44534608319B07E8D1A0
:10501000032205E003680838013E834200D003E222
:105020003242F7D14346019A5B689343424653604C
:10503000019A520001929A4216D8002A06D113E032
:1050400004229146019ACA44520001921342F7D0B9
:105050005646C2E70C23002033603EE780233F2200
:10506000402190469B0059E75E4647460322BC68B4
:10507000636893439A46AB4202D35A1B0F2A4FDC14
:10508000230053440293524B082099461B68103367
:105090005B19019300F026FB4E4903900B688B4689
:1050A000013306D08446019B4242013B63441340D6
:1050B00001933000019900F05DFB0300804601334D
:1050C00000D1D8E0029B834200D9D2E04B4601993F
:1050D0005A688C46624403995A60029B1000013959
:1050E000434500D0E5E043460B4200D0E1E0BB6819
:1050F00001219846634653440B4341464B60494661
:10510000C96A914201D24946CA624946096B914235
:1051100001D249460A634446AFE07B68984643E7BC
:10512000012329001A431943651961603000BD60ED
:105130006A6000F0E7FA20000830CEE6A268D0608E
:105140008260C0E6614608E7DC680231A34200D114
:1051500003E7B1E65A0A042A00D883E0142A00D9EA
:1051600008E110005B3082465C32D20008204042E9
:105170008446BA189444624692680B30814694453E
:1051800000D1DFE00800A2466146844602E0926852
:10519000914204D04C465068A0439842F7D8D36857
:1051A000614654469C466346A260E3609C60D460BE
:1051B000FAE614296ED9542900D9E4E06E23984602
:1051C000290B88446F31CB00A8E6C046C0040020FC
:1051D000740C0020B8040020BA46012051468446D1
:1051E0004919054350464560856847466046EB606F
:1051F0005E469D60534639617961204308374860B7
:10520000CF6030008F609C5000F07CFA5046083030
:1052100063E6BA4601205E4652445168014351603C
:10522000BA683000D3609A6000F06CFA3800083039
:1052300053E62B00E908083336E661198846012158
:105240008C460D434146656039617961CA608A6068
:10525000624602434A60E050300000F053FA2000FA
:1052600008303AE69A091000393238308246D200C6
:105270007CE7BC4214D0BC686368032293435A1B8A
:10528000AB4202D30F2A00DD4AE7300000F03AFAC1
:10529000002022E65B23984688445C31CB003DE643
:1052A0004B465868019B9C464B4660445860039BA4
:1052B000591E5B461B68013370D04346029A9B1A05
:1052C0004A461B1853600723424640461A40029242
:1052D000184240D00398013384469B1A019A98449F
:1052E0004244019263440A409B1A194030008B46A5
:1052F00000F040FA431C77D04346C01A03005B44D9
:1053000001934B465A6801205A445A60434641462D
:10531000BB60019B03434B60BC4200D1EFE65346A8
:105320000F2B3FD907210C3B8B43616801400520BF
:1053300019436160E118486088600F2B49D84346E3
:105340005B68DCE6534698100123834040461843CF
:105350008046786027E7019B039A43440B40D31AA9
:10536000194030008B4600F005FA431CC4D10023DD
:105370009B46C6E7542A17D81A0B10006F326E30BE
:105380008246D200F2E6AA235B00994217D8DD3BA1
:105390009846E90B88447831CB00BFE55B4642462E
:1053A0001A6090E7486070E7AA204000824226D841
:1053B000DA0B1000783277308246D200D6E61C4BEA
:1053C000994226D87C239846A90C88447D31CB008D
:1053D000A4E521003000083100F086F84B465A68F9
:1053E000BB6898465B688AE6019A029B94464246EF
:1053F000083B63449B1A019300239B4681E70C48BA
:1054000082420CD89A0C10007D327C308246D20049
:10541000ACE6FE237E227F2190469B007EE5FE22A5
:105420007E2092008246A1E643465B6800E6C046C5
:1054300054050000F0B5C646060000B508200D0072
:1054400000F050F90400300000F05AF9234B21001D
:1054500098469B685F6803239F4338001138401BC0
:105460000019FCF76BFE451E6543AC4208DC0021C9
:10547000300000F07FF943469B68DB19984206D064
:10548000300000F03FF9002080BCB846F0BD30008D
:10549000694200F06FF901300ED0012243467F1BB4
:1054A0009B6817430E4A5F60136830005B1B1360F4
:1054B00000F028F90120E7E70021300000F05AF958
:1054C00043469A68831A0F2BDADD064C0449246898
:1054D000001B086001210B435360D1E7C00400208A
:1054E000780C0020B8040020F8B5CE4647460500E9
:1054F0000C0080B5002957D000F002F901232100EB
:105500009C46083948686246030003249343CF1839
:105510007A68654EA243B468BC4200D170E0BC1802
:10552000A14664467A60044221D10868091A1B1812
:1055300088688046484640682040340008348146E8
:10554000A04551D04046CC68C460A06048460028C1
:1055500011D19B185548BA68824200D17FE0F868A3
:10556000D060826001221A434A60CB5007E048466F
:1055700040682042EDD062461A434A603B60802278
:105580009200934214D2DA085809012383407068CC
:1055900003437360D3009B199A68CB608A6099605B
:1055A000D160280000F0AEF8C0BCB946B046F8BDE6
:1055B0005C0A042C3DD89C09200039343830E400C2
:1055C00034192268083C0327944203D140E09268D2
:1055D000944203D05068B8439842F8D8D468CC605D
:1055E0008A60A160D160DCE7002858D1B868D21881
:1055F000FB68C3609860634613434B608A50D0E7F2
:105600009A186346034206D10B68C91A8868D218F3
:10561000CB68C3609860012313434B60244BB16097
:105620001B689342BDD8234B28001968FFF702FF7F
:10563000B7E7142C07D9542C1AD81C0B20006F3450
:105640006E30E400BCE720005C345B30E400B7E778
:10565000012380108340706803437360BFE7D1600B
:105660009160CA608A6001221A434A60CB5098E771
:10567000AA225200944205D8DC0B200078347730FF
:10568000E4009DE70C4A944205D89C0C20007D3430
:105690007C30E40094E7FE247E20A40090E762467C
:1056A0001A434A603B607CE7C0040020C804002025
:1056B000BC040020740C00205405000010B5034BFE
:1056C00001001868FFF7DCFB10BDC0469003002006
:1056D00010B5034B01001868FFF706FF10BDC04668
:1056E00090030020802310B55B01082801D1180029
:1056F00010BD00F081F816230360173BF7E7C046A2
:105700007047C0467047C04610B501000023002214
:10571000002000F08BF810BD10B583070AD00300FD
:10572000032102E001330B4205D01A78002AF9D197
:10573000181A10BD030019680C4A0D4C8A188A43C8
:1057400022420FD15968094A04338A188A432242F7
:1057500008D15968054A04338A188A432242F1D095
:1057600000E001331A78002AFBD1E1E7FFFEFEFEDC
:1057700080808080002370B5064C050008002360FF
:10578000FEF7D8FF431C00D070BD2368002BFBD070
:105790002B60F9E7E40D002070B501250B4B84B0B8
:1057A0006D4269460600002218680095019500F0D8
:1057B00029F82900002801DB009D0199002E01D065
:1057C00035607160280004B070BDC04690030020B1
:1057D00070B5074C074D641BA41005D0013CA30015
:1057E000EB589847002CF9D100F068F870BDC0461E
:1057F0005859001058590010014B18687047C0469E
:1058000090030020002370B5074D0400080011002C
:105810002B60FEF7A9FF431C00D070BD2B68002B46
:10582000FBD02360F9E7C046E40D0020F0B5C64682
:105830001A4C00B52568002D2AD06C681F2C2ADC74
:10584000002808D10020631C0234A4006B60615161
:1058500080BCB846F0BD8827A600AE19F2510137CA
:10586000FF37BC460122AC446746A2403F689046E1
:1058700017436246176084277F00F3510228E1D165
:10588000280042468D30FF30036813430360D9E798
:10589000034D2560D1E701204042D9E7780F002071
:1058A000E80D0020034B10B5002B02D00248FFF793
:1058B0002BFF10BD00000000D1570010F8B5C04606
:1058C00001B40248844601BC604700BF3902002091
:1058D00001B40248844601BC604700BF5D0100205E
:1058E00001B40248844601BC604700BF09030020A0
:1058F00001B40248844601BC604700BF0903002090
:1059000001B40248844601BC604700BFC1000020CA
:10591000CD1E0010F91E0010DD2000107D2F00109C
:1059200089270010912E001005200010151F00106F
:10593000351F0010491F001091130010511F001057
:105940000D170010951E0010E5120010A55800104C
:08595000954B0010FD02001050
:10595800252E3166204300000000000054454D50BC
:105968000000000025733A2025730A0056616C6F09
:1059780072206465206C612074656D706572617455
:105988007572613A20252E32660A0000257520704E
:10599800706D0000434F320056616C6F7220646571
:1059A80020434F323A2025750A000000252E316623
:1059B8002025250048554D454441440056616C6FEB
:1059C80072206465206C612068756D656461643A55
:1059D80020252E32660A0000444854323020696E71
:1059E800696369616C697A61646F20636F7272655B
:1059F8006374616D656E74652E0000004572726F88
:105A08007220616C20696E696369616C697A617280
:105A18002044485432303A2025640A005472616E9A
:105A2800736963696F6E206E6F20646566696E695D
:105A38006461202873743D25642C2065763D2564B7
:105A4800290A000073677033303A207772697465E9
:105A58002069617120696E6974206661696C65648A
:105A68002E0A000073677033303A20726561642033
:105A78006D65617375726520696171206661696C15
:105A880065642E0A0000000073677033303A2063A3
:105A98006F322065712063726320636865636B20D1
:105AA8006572726F722E0A0073677033303A207411
:105AB800766F632063726320636865636B20657229
:105AC800726F722E0A00000073677033303A2077C5
